:100000000EC01DC01CC01BC01BC019C018C013C12E
:1000100016C015C014C013C012C011C010C01124E6
:100020001FBECFE5D2E0DEBFCDBF12E0A0E6B0E05C
:1000300001C01D92A234B107E1F736D149C1E0CF2A
:100040001F920F920FB60F9211242F923F925F9240
:100050006F927F928F929F92AF92BF92CF92DF92D8
:10006000EF92FF920F931F932F933F934F935F93C2
:100070006F937F938F939F93AF93BF93CF93DF93B0
:10008000EF93FF938091600090916100892B09F4B8
:10009000AAC040E050E05524CAE4D0E00F2EF2E4BC
:1000A000EF2EF02DA3E5B0E0DD24D39432E8FF2459
:1000B0006894F1F808E310E062E670E00F2EF0E5D6
:1000C000AF2EF2E0BF2EF02D0F2EFAEBCF2EF02D3B
:1000D0000F2EF4E28F2EF1E09F2EF02D0F2EFDEB70
:1000E0006F2EF1E07F2EF02D0F2EF8E82F2EF3E18A
:1000F0003F2EF02D54C0E882DC92832F8A95F1F7D1
:1001000000000000000000000000000000000000EF
:10011000F8821C92F8011082FB01E40FF51F208188
:10012000CA010196FB01E80FF91F8081220F820F9F
:100130008130A1F0813030F08230F9F0833009F065
:100140002CC028C08C2D8A95F1F70000000000001B
:10015000000000000000000000001FC0C501019762
:10016000F1F70000000000000000000000000000A7
:10017000000000000000000010C0C4010197F1F76A
:10018000000000000000000000000000000000006F
:10019000000003C0C3010197F1F74E5F5F4F8091EC
:1001A00060009091610001974817590708F4A3CFA8
:1001B000E882DC92832F8A95F1F7000000000000AE
:1001C00000000000000000000000F8821C92F8010E
:1001D0001082C1010197F1F75394F1E3F51518F07E
:1001E00040E050E0DCCF10926100109260008AE4A1
:1001F00088B9FF91EF91DF91CF91BF91AF919F911E
:100200008F917F916F915F914F913F912F911F91AE
:100210000F91FF90EF90DF90CF90BF90AF909F90A5
:100220008F907F906F905F903F902F900F900FBEB8
:100230000F901F9018951F920F920FB60F921124D6
:100240002F938F939F93EF93FF93EFE4F0E0208140
:1002500010828091600090916100892B91F021388B
:1002600040F0E0916000F0916100EF59FF4F108283
:1002700008C0E0916000F0916100EF59FF4F81E00C
:10028000808380916000909161000196909361005D
:1002900080936000FF91EF919F918F912F910F902C
:1002A0000FBE0F901F901895E1E4F0E088E1808385
:1002B000108218BA81E087BB83E089BD8BE488B9DE
:1002C00082E084BB85E080BF84E089BF7894FFCF63
:0402D000F894FFCFD0
:00000001FF
